:100000000C942A000C9447000C9447000C94470071
:100010000C9447000C9447000C9447000C949C10DF
:100020000C9447000C9447000C9447000C94470034
:100030000C9447000C9447000C9447000C94470024
:100040000C9447000C9447000C9447000C94470014
:100050000C94470011241FBECFE5D8E0DEBFCDBF12
:1000600010E0A0E6B0E0ECE7F4E602C005900D92E7
:10007000A43FB107D9F717E0A4EFB0E001C01D928B
:10008000A835B107E1F70E941F320C943C320C9462
:100090000000DF93CF93CDB7DEB72B970FB6F89460
:1000A000DEBF0FBECDBF81E08A8319821982B2C440
:1000B0008981282F30E0C901880F991F880F991F67
:1000C000820F931FFC01E456FF4F8081883020F09F
:1000D0001A822A812B87A4C48981282F30E0C90184
:1000E000880F991F880F991F820F931FFC01E356F9
:1000F000FF4F8081813009F0B0C08981282F30E026
:10010000C901880F991F880F991F820F931FFC0147
:10011000E556FF4F8081282F30E03A87298789856F
:100120009A8581309105B9F129853A8522303105CA
:100130002CF489859A85009771F08DC029853A85C0
:100140002230310509F447C089859A8583309105AD
:1001500009F461C080C0AAE3B0E0EAE3F0E04081C6
:100160008981282F30E0C901880F991F880F991FB6
:10017000820F931FFC01E456FF4F8081282F30E04F
:1001800081E090E0022E02C0880F991F0A94E2F7E6
:10019000842B8C93B5C2A7E3B0E0E7E3F0E04081A5
:1001A0008981282F30E0C901880F991F880F991F76
:1001B000820F931FFC01E456FF4F8081282F30E00F
:1001C00081E090E0022E02C0880F991F0A94E2F7A6
:1001D000842B8C9395C2A4E3B0E0E4E3F0E040818B
:1001E0008981282F30E0C901880F991F880F991F36
:1001F000820F931FFC01E456FF4F8081282F30E0CF
:1002000081E090E0022E02C0880F991F0A94E2F765
:10021000842B8C9375C2A1E3B0E0E1E3F0E0408170
:100220008981282F30E0C901880F991F880F991FF5
:10023000820F931FFC01E456FF4F8081282F30E08E
:1002400081E090E0022E02C0880F991F0A94E2F725
:10025000842B8C9355C21A8253C28981282F30E097
:10026000C901880F991F880F991F820F931FFC01E6
:10027000E356FF4F8081882309F041C28981282FEE
:1002800030E0C901880F991F880F991F820F931FB3
:10029000FC01E556FF4F8081282F30E038872F83FF
:1002A0008F8198858130910509F49BC02F81388515
:1002B000223031052CF48F819885009771F01DC292
:1002C0002F8138852230310509F40FC18F8198853F
:1002D0008330910509F48DC110C2AAE3B0E0EAE3CE
:1002E000F0E040818981282F30E0C901880F991FF3
:1002F000880F991F820F931FFC01E456FF4F8081E6
:10030000282F30E081E090E002C0880F991F2A95E5
:10031000E2F7809584238C938981282F30E0C901EE
:10032000880F991F880F991F820F931FFC01E156B8
:10033000FF4F8081813001F5ABE3B0E0EBE3F0E00B
:1003400040818981282F30E0C901880F991F880FCB
:10035000991F820F931FFC01E456FF4F8081282FC5
:1003600030E081E090E0022E02C0880F991F0A94CD
:10037000E2F7842B8C93C4C18981282F30E0C90116
:10038000880F991F880F991F820F931FFC01E15658
:10039000FF4F8081882309F5ABE3B0E0EBE3F0E0A9
:1003A00040818981282F30E0C901880F991F880F6B
:1003B000991F820F931FFC01E456FF4F8081282F65
:1003C00030E081E090E0022E02C0880F991F0A946D
:1003D000E2F7809584238C9393C11A829A819B873C
:1003E0001FC3A7E3B0E0E7E3F0E040818981282F55
:1003F00030E0C901880F991F880F991F820F931F42
:10040000FC01E456FF4F8081282F30E081E090E02E
:1004100002C0880F991F2A95E2F7809584238C9358
:100420008981282F30E0C901880F991F880F991FF3
:10043000820F931FFC01E156FF4F8081813001F54F
:10044000A8E3B0E0E8E3F0E040818981282F30E0C4
:10045000C901880F991F880F991F820F931FFC01F4
:10046000E456FF4F8081282F30E081E090E0022E9B
:1004700002C0880F991F0A94E2F7842B8C9340C125
:100480008981282F30E0C901880F991F880F991F93
:10049000820F931FFC01E156FF4F8081882309F5ED
:1004A000A8E3B0E0E8E3F0E040818981282F30E064
:1004B000C901880F991F880F991F820F931FFC0194
:1004C000E456FF4F8081282F30E081E090E0022E3B
:1004D00002C0880F991F0A94E2F7809584238C93B9
:1004E0000FC11A822A812B879BC2A4E3B0E0E4E308
:1004F000F0E040818981282F30E0C901880F991FE1
:10050000880F991F820F931FFC01E456FF4F8081D3
:10051000282F30E081E090E002C0880F991F2A95D3
:10052000E2F7809584238C938981282F30E0C901DC
:10053000880F991F880F991F820F931FFC01E156A6
:10054000FF4F8081813001F5A5E3B0E0E5E3F0E005
:1005500040818981282F30E0C901880F991F880FB9
:10056000991F820F931FFC01E456FF4F8081282FB3
:1005700030E081E090E0022E02C0880F991F0A94BB
:10058000E2F7842B8C93BCC08981282F30E0C9010D
:10059000880F991F880F991F820F931FFC01E15646
:1005A000FF4F8081882309F5A5E3B0E0E5E3F0E0A3
:1005B00040818981282F30E0C901880F991F880F59
:1005C000991F820F931FFC01E456FF4F8081282F53
:1005D00030E081E090E0022E02C0880F991F0A945B
:1005E000E2F7809584238C938BC01A823A813B87F3
:1005F00017C2A1E3B0E0E1E3F0E040818981282F58
:1006000030E0C901880F991F880F991F820F931F2F
:10061000FC01E456FF4F8081282F30E081E090E01C
:1006200002C0880F991F2A95E2F7809584238C9346
:100630008981282F30E0C901880F991F880F991FE1
:10064000820F931FFC01E156FF4F8081813001F53D
:10065000A2E3B0E0E2E3F0E040818981282F30E0BE
:10066000C901880F991F880F991F820F931FFC01E2
:10067000E456FF4F8081282F30E081E090E0022E89
:1006800002C0880F991F0A94E2F7842B8C9338C01C
:100690008981282F30E0C901880F991F880F991F81
:1006A000820F931FFC01E156FF4F8081882309F5DB
:1006B000A2E3B0E0E2E3F0E040818981282F30E05E
:1006C000C901880F991F880F991F820F931FFC0182
:1006D000E456FF4F8081282F30E081E090E0022E29
:1006E00002C0880F991F0A94E2F7809584238C93A7
:1006F00007C01A828A818B8793C11A8201C01A822D
:100700008981282F30E0C901880F991F880F991F10
:10071000820F931FFC01E256FF4F8081813009F068
:10072000B0C08981282F30E0C901880F991F880F38
:10073000991F820F931FFC01E556FF4F8081282FE0
:1007400030E03E832D838D819E8181309105B9F10A
:100750002D813E81223031052CF48D819E810097C0
:1007600071F08DC02D813E812230310509F447C0E2
:100770008D819E818330910509F461C080C0ABE317
:10078000B0E0EBE3F0E040818981282F30E0C9013F
:10079000880F991F880F991F820F931FFC01E45641
:1007A000FF4F8081282F30E081E090E0022E02C0D0
:1007B000880F991F0A94E2F7842B8C9328C1A8E331
:1007C000B0E0E8E3F0E040818981282F30E0C90102
:1007D000880F991F880F991F820F931FFC01E45601
:1007E000FF4F8081282F30E081E090E0022E02C090
:1007F000880F991F0A94E2F7842B8C9308C1A5E314
:10080000B0E0E5E3F0E040818981282F30E0C901C4
:10081000880F991F880F991F820F931FFC01E456C0
:10082000FF4F8081282F30E081E090E0022E02C04F
:10083000880F991F0A94E2F7842B8C93E8C0A2E3F7
:10084000B0E0E2E3F0E040818981282F30E0C90187
:10085000880F991F880F991F820F931FFC01E45680
:10086000FF4F8081282F30E081E090E0022E02C00F
:10087000880F991F0A94E2F7842B8C93C8C01A82C0
:10088000C6C08981282F30E0C901880F991F880FC1
:10089000991F820F931FFC01E256FF4F808188232E
:1008A00009F0B4C08981282F30E0C901880F991F51
:1008B000880F991F820F931FFC01E556FF4F80811F
:1008C000282F30E03C832B838B819C8181309105E4
:1008D000C1F12B813C81223031052CF48B819C812C
:1008E000009771F091C02B813C812230310509F4D1
:1008F00049C08B819C818330910509F464C084C018
:10090000ABE3B0E0EBE3F0E040818981282F30E0F9
:10091000C901880F991F880F991F820F931FFC012F
:10092000E456FF4F8081282F30E081E090E0022ED6
:1009300002C0880F991F0A94E2F7809584238C9354
:1009400066C0A8E3B0E0E8E3F0E040818981282FA9
:1009500030E0C901880F991F880F991F820F931FDC
:10096000FC01E456FF4F8081282F30E081E090E0C9
:10097000022E02C0880F991F0A94E2F78095842303
:100980008C9345C0A5E3B0E0E5E3F0E040818981C8
:10099000282F30E0C901880F991F880F991F820FF7
:1009A000931FFC01E456FF4F8081282F30E081E047
:1009B00090E0022E02C0880F991F0A94E2F78095FA
:1009C00084238C9324C0A2E3B0E0E2E3F0E0408112
:1009D0008981282F30E0C901880F991F880F991F3E
:1009E000820F931FFC01E456FF4F8081282F30E0D7
:1009F00081E090E0022E02C0880F991F0A94E2F76E
:100A0000809584238C9303C01A8201C01A82898145
:100A10008F5F898389818B3008F44ACB9A819B87C9
:100A20008B852B960FB6F894DEBF0FBECDBFCF914E
:100A3000DF910895DF93CF93CDB7DEB729970FB637
:100A4000F894DEBF0FBECDBF8A836B834C8381E0F9
:100A500089838B81883020F0198229812987E9C018
:100A60008C81813009F06DC08A81282F30E0388771
:100A70002F838F8198858130910541F12F813885B1
:100A8000223031052CF48F819885009761F057C092
:100A90002F8138852230310561F18F81988583302F
:100AA0009105D1F14CC0AAE3B0E0EAE3F0E0408167
:100AB0008B81282F30E081E090E0022E02C0880F69
:100AC000991F0A94E2F7842B8C93B1C0A7E3B0E09E
:100AD000E7E3F0E040818B81282F30E081E090E077
:100AE000022E02C0880F991F0A94E2F7842B8C9380
:100AF0009EC0A4E3B0E0E4E3F0E040818B81282FC6
:100B000030E081E090E0022E02C0880F991F0A9425
:100B1000E2F7842B8C938BC0A1E3B0E0E1E3F0E03B
:100B200040818B81282F30E081E090E0022E02C0CE
:100B3000880F991F0A94E2F7842B8C9378C019824E
:100B400076C08C81882309F071C08A81282F30E01B
:100B50003E832D838D819E818130910549F12D81C8
:100B60003E81223031052CF48D819E81009761F009
:100B70005BC02D813E812230310571F18D819E81D6
:100B800083309105E9F150C0AAE3B0E0EAE3F0E078
:100B900040818B81282F30E081E090E0022E02C05E
:100BA000880F991F0A94E2F7809584238C933FC0A5
:100BB000A7E3B0E0E7E3F0E040818B81282F30E04D
:100BC00081E090E0022E02C0880F991F0A94E2F79C
:100BD000809584238C932BC0A4E3B0E0E4E3F0E0A1
:100BE00040818B81282F30E081E090E0022E02C00E
:100BF000880F991F0A94E2F7809584238C9317C07D
:100C0000A1E3B0E0E1E3F0E040818B81282F30E008
:100C100081E090E0022E02C0880F991F0A94E2F74B
:100C2000809584238C9303C0198201C01982998115
:100C30009987898529960FB6F894DEBF0FBECDBF80
:100C4000CF91DF910895DF93CF93CDB7DEB729978A
:100C50000FB6F894DEBF0FBECDBF8A836B834C8383
:100C600081E089838B81883020F01982298129874E
:100C7000E9C08C81813009F06DC08A81282F30E075
:100C800038872F838F8198858130910541F12F819D
:100C90003885223031052CF48F819885009761F0DA
:100CA00057C02F8138852230310561F18F819885B9
:100CB00083309105D1F14CC0ABE3B0E0EBE3F0E061
:100CC00040818B81282F30E081E090E0022E02C02D
:100CD000880F991F0A94E2F7842B8C93B1C0A8E384
:100CE000B0E0E8E3F0E040818B81282F30E081E044
:100CF00090E0022E02C0880F991F0A94E2F7842B1D
:100D00008C939EC0A5E3B0E0E5E3F0E040818B81E9
:100D1000282F30E081E090E0022E02C0880F991F5A
:100D20000A94E2F7842B8C938BC0A2E3B0E0E2E359
:100D3000F0E040818B81282F30E081E090E0022EAE
:100D400002C0880F991F0A94E2F7842B8C9378C015
:100D5000198276C08C81882309F071C08A81282F7E
:100D600030E03E832D838D819E818130910549F154
:100D70002D813E81223031052CF48D819E8100979A
:100D800061F05BC02D813E812230310571F18D8192
:100D90009E8183309105E9F150C0ABE3B0E0EBE315
:100DA000F0E040818B81282F30E081E090E0022E3E
:100DB00002C0880F991F0A94E2F7809584238C93D0
:100DC0003FC0A8E3B0E0E8E3F0E040818B81282F4A
:100DD00030E081E090E0022E02C0880F991F0A9453
:100DE000E2F7809584238C932BC0A5E3B0E0E5E384
:100DF000F0E040818B81282F30E081E090E0022EEE
:100E000002C0880F991F0A94E2F7809584238C937F
:100E100017C0A2E3B0E0E2E3F0E040818B81282F2D
:100E200030E081E090E0022E02C0880F991F0A9402
:100E3000E2F7809584238C9303C0198201C0198244
:100E400099819987898529960FB6F894DEBF0FBEE0
:100E5000CDBFCF91DF910895DF93CF93CDB7DEB7AC
:100E600028970FB6F894DEBF0FBECDBF8A836B8381
:100E70005D834C8381E089838B81883020F01982E7
:100E800029812887A5C08A81482F50E05F834E833F
:100E90008E819F8181309105C1F12E813F81223069
:100EA000310534F44E815F814115510571F08DC0DB
:100EB0008E819F818230910509F447C02E813F8148
:100EC0002330310509F461C080C0E9E3F0E080819E
:100ED000482F50E08B81282F30E081E090E002C065
:100EE000880F991F2A95E2F79A01282339238B81CD
:100EF000882F90E0A90102C0569547958A95E2F7A0
:100F0000CA01EC81FD81808361C0E6E3F0E080816D
:100F1000482F50E08B81282F30E081E090E002C024
:100F2000880F991F2A95E2F79A01282339238B818C
:100F3000882F90E0A90102C0569547958A95E2F75F
:100F4000CA01EC81FD81808341C0E3E3F0E0808150
:100F5000482F50E08B81282F30E081E090E002C0E4
:100F6000880F991F2A95E2F79A01282339238B814C
:100F7000882F90E0A90102C0569547958A95E2F71F
:100F8000CA01EC81FD81808321C0E0E3F0E0808133
:100F9000482F50E08B81282F30E081E090E002C0A4
:100FA000880F991F2A95E2F79A01282339238B810C
:100FB000882F90E0A90102C0569547958A95E2F7DF
:100FC000CA01EC81FD81808301C019825981588753
:100FD000888528960FB6F894DEBF0FBECDBFCF919F
:100FE000DF910895DF93CF9300D000D00F92CDB75B
:100FF000DEB78A836B8381E089838A81282F30E082
:101000003D832C838C819D8181309105D1F02C8191
:101010003D81223031052CF48C819D81009761F057
:101020001FC02C813D812230310581F08C819D8152
:101030008330910581F014C0EAE3F0E08B81808376
:1010400010C0E7E3F0E08B8180830BC0E4E3F0E0C5
:101050008B81808306C0E1E3F0E08B81808301C057
:10106000198289810F900F900F900F900F90CF9160
:10107000DF910895DF93CF9300D000D00F92CDB7CA
:10108000DEB78A836B8381E089838A81282F30E0F1
:101090003D832C838C819D8181309105D1F02C8101
:1010A0003D81223031052CF48C819D81009761F0C7
:1010B0001FC02C813D812230310581F08C819D81C2
:1010C0008330910581F014C0EBE3F0E08B818083E5
:1010D00010C0E8E3F0E08B8180830BC0E5E3F0E033
:1010E0008B81808306C0E2E3F0E08B81808301C0C6
:1010F000198289810F900F900F900F900F90CF91D0
:10110000DF910895DF93CF9300D000D000D0CDB70A
:10111000DEB78A837C836B8381E089838A81282F71
:1011200030E03E832D838D819E8181309105E1F0F9
:101130002D813E81223031052CF48D819E810097D6
:1011400061F027C02D813E8122303105A1F08D81D3
:101150009E8183309105B1F01CC0E9E3F0E080810D
:10116000EB81FC81808316C0E6E3F0E08081EB81B7
:10117000FC8180830FC0E3E3F0E08081EB81FC81A0
:10118000808308C0E0E3F0E08081EB81FC81808314
:1011900001C01982898126960FB6F894DEBF0FBE72
:1011A000CDBFCF91DF910895DF93CF9300D0CDB71E
:1011B000DEB78BE090E00E94190C9A8389838981C5
:1011C0009A81009749F0E981FA8111821082898120
:1011D0009A8102960E94950C89819A810F900F90B6
:1011E000CF91DF910895DF93CF93CDB7DEB76097AE
:1011F0000FB6F894DEBF0FBECDBF9A8789877C8774
:101200006B875E874D87388B2F8789859A859C836E
:101210008B8319820E944323EB81FC818081918121
:1012200098878F8389859A852B853C85B9010E9493
:10123000CA0A2F8138858B859C85282B392B8D8573
:101240009E85282339238D859E8528173907C9F463
:101250002F8138858B859C85822B932B9E838D8354
:10126000EB81FC81208131818D859E8580959095D3
:1012700082239323EB81FC8191838083188A1F86CC
:101280001EC08F859889009791F08B819C81BC014D
:101290006E5F7F4F8D859E859C0135604F85588997
:1012A000CB01B9010E9483251E821D8208C0EB81FB
:1012B000FC81808191819E838D8381E089830E945E
:1012C0004F238A838F859889009709F43AC08A81D1
:1012D000882311F40E948A0F0E94F8279E838D8331
:1012E0008D819E8180709270009731F50FB6F894D1
:1012F0000F92EB81FC81808191819E838D832D8172
:101300003E818D859E85282339238D859E852817CE
:10131000390771F4EB81FC81208131818D859E85B7
:101320008095909582239323EB81FC819183808328
:101330000F900FBE81E089838D819E8190709E8386
:101340008D838D819E8160960FB6F894DEBF0FBEAF
:10135000CDBFCF91DF9108950F931F93DF93CF936C
:10136000CDB7DEB763970FB6F894DEBF0FBECDBF23
:101370009D878C877F876E87488B298B1B8B0A8B79
:101380008C859D859B878A871F821E821B820E9477
:101390004323EA85FB85808191819A8389838981B2
:1013A0009A812E853F85B90149890E94E70B8D837B
:1013B0008D818823C1F089819A81998788871B8ACA
:1013C0001A8A88898823E9F1EA85FB8520813181A1
:1013D0008E859F858095909582239323EA85FB8552
:1013E000918380832EC08A899B89009739F48981F3
:1013F0009A819987888781E08B8323C08889882395
:1014000029F08E819F8191609F838E8389898823B3
:1014100029F08E819F8194609F838E838A859B852E
:10142000BC016E5F7F4F2E853F858E819F81282B6B
:10143000392B4A895B89CB01B9010E948325198622
:1014400018860E944F238C838A899B89009709F410
:101450003CC08C81882311F40E948A0F0E94F827D7
:10146000998788878885998580709270009741F563
:101470000FB6F8940F92EA85FB8580819181998758
:101480008887888599852E853F85B90149890E947D
:10149000E70B882389F08889882371F0EA85FB852A
:1014A000208131818E859F8580959095822393231D
:1014B000EA85FB859183808381E08B830F900FBE4B
:1014C000888599859070998788878885998563969E
:1014D0000FB6F894DEBF0FBECDBFCF91DF911F9145
:1014E0000F910895DF93CF93CDB7DEB728970FB64E
:1014F000F894DEBF0FBECDBF9E838D8378876F8348
:101500008D819E819C838B830FB6F8940F92EB8123
:10151000FC81808191819A838983EB81FC81208188
:1015200031818F8198858095909582239323EB81DB
:10153000FC81918380830F900FBE89819A812896C8
:101540000FB6F894DEBF0FBECDBFCF91DF910895E7
:10155000DF93CF93CDB7DEB727970FB6F894DEBFF2
:101560000FBECDBF9F838E838E819F819C838B8393
:101570001D82EB81FC81808191819A83898389819D
:101580009A8127960FB6F894DEBF0FBECDBFCF91DC
:10159000DF910895DF93CF93CDB7DEB765970FB690
:1015A000F894DEBF0FBECDBF9B8B8A8B7D8B6C8B7F
:1015B000198618868A899B899B838A8319828A81E6
:1015C0009B8102969B878A878A859B8503969D8748
:1015D0008C870E944323EA85FB8585819681998BC0
:1015E000888BEA81FB81208131818C899D89822BC6
:1015F000932BEA81FB819183808359C0E889F98923
:10160000828193819F878E87E889F9898081918182
:101610009F838E8319828E819F8180709D838C83AE
:101620008E819F8190709F838E838C819D8180703D
:101630009470009769F4EA81FB81208131818E8169
:101640009F8182239323009791F081E089830FC0CB
:10165000EA81FB81208131818E819F81282339237A
:101660008E819F812817390711F481E08983898150
:101670008823C9F08C819D8180709170009741F022
:10168000888599852E813F81822B932B9987888726
:10169000EA81FB81808191819C01326088899989EE
:1016A000B9010E941E268E859F85998B888B28897B
:1016B00039898C859D852817390709F09FCFEA81E4
:1016C000FB81208131818885998580959095822341
:1016D0009323EA81FB81918380830E944F23EA81D7
:1016E000FB818081918165960FB6F894DEBF0FBEB5
:1016F000CDBFCF91DF910895DF93CF9300D000D07D
:1017000000D0CDB7DEB79E838D838D819E819C8373
:101710008B838B819C8102969A8389830E944323C9
:1017200008C0E981FA818581968160E072E00E94BB
:101730001E26E981FA818081882399F78B819C811B
:101740000E946F0C0E944F2326960FB6F894DEBFBE
:101750000FBECDBFCF91DF910895DF93CF9300D01F
:1017600000D000D0CDB7DEB79A8389834B835C83EA
:101770006D837E8389819A812B813C81B9010E948E
:10178000CA0A26960FB6F894DEBF0FBECDBFCF9122
:10179000DF910895DF93CF9300D000D000D0CDB774
:1017A000DEB79A8389834B835C836D837E838981D3
:1017B0009A812B813C81B9010E94720A26960FB64C
:1017C000F894DEBF0FBECDBFCF91DF910895DF93B8
:1017D000CF9300D000D000D0CDB7DEB79B838A83F3
:1017E0007D836C834E8319828E81882359F48A818C
:1017F0009B812C813D8182239323009781F081E09E
:1018000089830DC02A813B818C819D8128233923C6
:101810008C819D812817390711F481E089838981A2
:1018200026960FB6F894DEBF0FBECDBFCF91DF91E5
:101830000895DF93CF9300D000D0CDB7DEB79C835F
:101840008B831A8219820E9443238091F600909123
:10185000F700009731F489EF90E09093F7008093C0
:10186000F6008091F4009091F5002B813C81820F6D
:10187000931F25E08B3D920738F52091F4003091BD
:10188000F5008B819C81280F391F8091F400909185
:10189000F50082179307C0F42091F6003091F7000D
:1018A0008091F4009091F500820F931F9A838983B1
:1018B0002091F4003091F5008B819C81820F931F61
:1018C0009093F5008093F4000E944F2389819A81C0
:1018D0000F900F900F900F90CF91DF910895DF93AD
:1018E000CF9300D0CDB7DEB79A8389830F900F9046
:1018F000CF91DF910895DF93CF93CDB7DEB71092EC
:10190000F5001092F400CF91DF910895DF93CF930B
:10191000CDB7DEB72091F4003091F5008BED95E066
:10192000821B930BCF91DF910895DF93CF9300D06B
:10193000CDB7DEB79A83898389819A810396E9813D
:10194000FA8192838183E981FA818FEF9FEF9483FB
:10195000838389819A810396E981FA8196838583BD
:1019600089819A810396E981FA8190878783E98149
:10197000FA8110820F900F90CF91DF910895DF933D
:10198000CF9300D0CDB7DEB79A838983E981FA81FE
:10199000118610860F900F90CF91DF910895DF93FD
:1019A000CF9300D000D000D0CDB7DEB79C838B831F
:1019B0007E836D83EB81FC81818192819A8389830F
:1019C000ED81FE8189819A8193838283E981FA8105
:1019D00084819581ED81FE8195838483E981FA81FB
:1019E0000480F581E02D8D819E8193838283E9813E
:1019F000FA818D819E8195838483ED81FE818B8127
:101A00009C8191878087EB81FC8180818F5FEB8156
:101A1000FC81808326960FB6F894DEBF0FBECDBF43
:101A2000CF91DF910895DF93CF93CDB7DEB728979D
:101A30000FB6F894DEBF0FBECDBF9E838D8378872F
:101A40006F83EF81F885808191819A838983898171
:101A50009A812FEF8F3F920739F4ED81FE818781C4
:101A600090859C838B8318C08D819E8103969C8377
:101A70008B8306C0EB81FC81828193819C838B8365
:101A8000EB81FC810280F381E02D2081318189810D
:101A90009A818217930770F7EB81FC818281938191
:101AA000EF81F88593838283EF81F8850280F3814B
:101AB000E02D8F81988595838483EF81F8858B81D4
:101AC0009C8195838483EB81FC818F8198859383AE
:101AD0008283EF81F8858D819E8191878087ED815A
:101AE000FE8180818F5FED81FE81808328960FB615
:101AF000F894DEBF0FBECDBFCF91DF910895DF9385
:101B0000CF9300D000D0CDB7DEB79C838B83EB8121
:101B1000FC81808591859A838983EB81FC81A281F8
:101B2000B381EB81FC818481958115969C938E9382
:101B30001497EB81FC81A481B581EB81FC818281CA
:101B4000938113969C938E931297E981FA81218158
:101B500032818B819C812817390741F4EB81FC810C
:101B600084819581E981FA8192838183EB81FC8173
:101B700011861086E981FA8180818150E981FA819C
:101B80008083E981FA8180810F900F900F900F90F0
:101B9000CF91DF910895DF93CF93CDB7DEB728972C
:101BA0000FB6F894DEBF0FBECDBF9C838B837E83C0
:101BB0006D8358874F83EB81FC8181E180838B812A
:101BC0009C8101979C838B83EB81FC8182E28083E3
:101BD0008B819C8101979C838B83EB81FC8183E3C8
:101BE00080838B819C8101979C838B838D819E81D7
:101BF0009A8389838981EB81FC8180838B819C819D
:101C000001979C838B8389819A81892F99279A8355
:101C100089838981EB81FC8180838B819C81019701
:101C20009C838B83EB81FC8110828B819C8101974B
:101C30009C838B83EB81FC8180E880838B819C81FA
:101C400001979C838B83EB81FC8110828B819C812B
:101C500001979C838B83EB81FC8182E080838B8165
:101C60009C8101979C838B83EB81FC8183E0808343
:101C70008B819C8101979C838B83EB81FC8184E029
:101C800080838B819C8101979C838B83EB81FC817A
:101C900085E080838B819C8101979C838B83EB8182
:101CA000FC8186E080838B819C8101979C838B8360
:101CB000EB81FC8187E080838B819C8101979C83F1
:101CC0008B83EB81FC8188E080838B819C810197F1
:101CD0009C838B83EB81FC8189E080838B819C8159
:101CE00001979C838B83EB81FC8180E180838B81D6
:101CF0009C8101979C838B83EB81FC8181E18083B4
:101D00008B819C8101979C838B83EB81FC8182E199
:101D100080838B819C8101979C838B83EB81FC81E9
:101D200083E180838B819C8101979C838B83EB81F2
:101D3000FC8184E180838B819C8101979C838B83D0
:101D4000EB81FC8185E180838B819C8101979C8361
:101D50008B83EB81FC8186E180838B819C81019761
:101D60009C838B83EB81FC8187E180838B819C81C9
:101D700001979C838B83EB81FC8188E180838B813D
:101D80009C8101979C838B83EB81FC8189E180831B
:101D90008B819C8101979C838B83EB81FC8180E20A
:101DA00080838B819C8101979C838B83EB81FC8159
:101DB00081E280838B819C8101979C838B83EB8163
:101DC000FC8182E280838B819C8101979C838B8341
:101DD000EB81FC8183E280838B819C8101979C83D2
:101DE0008B838F8198859A8389838981EB81FC819C
:101DF00080838B819C8101979C838B8389819A81CD
:101E0000892F99279A8389838981EB81FC8180833B
:101E10008B819C8101979C838B83EB81FC8186E283
:101E200080838B819C8101979C838B83EB81FC81D8
:101E300087E280838B819C8101979C838B83EB81DC
:101E4000FC8188E280838B819C8101979C838B83BA
:101E5000EB81FC8189E280838B819C8101979C834B
:101E60008B83EB81FC8180E380838B819C81019754
:101E70009C838B83EB81FC8181E380838B819C81BC
:101E800001979C838B838B819C8128960FB6F89455
:101E9000DEBF0FBECDBFCF91DF910895DF93CF930B
:101EA000CDB7DEB70E944010A091D406B091D50600
:101EB000CD91CDBFDD91DEBFFF91EF91DF91CF914D
:101EC000BF91AF919F918F917F916F915F914F9152
:101ED0003F912F911F910F91FF90EF90DF90CF9046
:101EE000BF90AF909F908F907F906F905F904F903A
:101EF0003F902F901F900F900FBE0F90089581E09C
:101F0000CF91DF910895DF93CF93CDB7DEB7CF9117
:101F1000DF9108950F920FB6F8940F921F9211243B
:101F20002F923F924F925F926F927F928F929F92E9
:101F3000AF92BF92CF92DF92EF92FF920F931F93D7
:101F40002F933F934F935F936F937F938F939F93C1
:101F5000AF93BF93CF93DF93EF93FF93A091D406FA
:101F6000B091D5060DB60D920EB60D920E94F424D6
:101F7000A091D406B091D506CD91CDBFDD91DEBF45
:101F8000FF91EF91DF91CF91BF91AF919F918F9191
:101F90007F916F915F914F913F912F911F910F9181
:101FA000FF90EF90DF90CF90BF90AF909F908F9079
:101FB0007F906F905F904F903F902F901F900F9069
:101FC0000FBE0F9008950F920FB6F8940F921F92C4
:101FD00011242F923F924F925F926F927F928F9235
:101FE0009F92AF92BF92CF92DF92EF92FF920F93A8
:101FF0001F932F933F934F935F936F937F938F9391
:102000009F93AF93BF93CF93DF93EF93FF93A091F1
:10201000D406B091D5060DB60D920EB60D920E9463
:102020003B24882311F00E94F424A091D406B0919F
:10203000D506CD91CDBFDD91DEBFFF91EF91DF9150
:10204000CF91BF91AF919F918F917F916F915F9150
:102050004F913F912F911F910F91FF90EF90DF9043
:10206000CF90BF90AF909F908F907F906F905F9038
:102070004F903F902F901F900F900FBE0F9008959C
:10208000DF93CF9300D000D000D0CDB7DEB780E48F
:102090009FE1A0E0B0E08B839C83AD83BE838B8106
:1020A0009C81AD81BE81689415F8B695A7959795EA
:1020B00087951694D1F78B839C83AD83BE838B81E8
:1020C0009C81AD81BE810197A109B1098B839C835D
:1020D000AD83BE838B8189838B819C81AD81BE81E1
:1020E000892F9A2FAB2FBB278B839C83AD83BE8315
:1020F0008B818A83EBE4F0E08A818083EAE4F0E07C
:10210000898180838BE08983EEE4F0E0898180839C
:10211000E9E5F0E080818983898180618983E9E54F
:10212000F0E08981808326960FB6F894DEBF0FBE5B
:10213000CDBFCF91DF9108951F920F920FB60F92EE
:1021400011242F933F934F935F936F937F938F93BC
:102150009F93AF93BF93EF93FF93DF93CF93CDB74D
:10216000DEB70E943B24CF91DF91FF91EF91BF91A9
:10217000AF919F918F917F916F915F914F913F911F
:102180002F910F900FBE0F901F901895DF93CF9354
:1021900000D000D00F92CDB7DEB79C838B836D83C8
:1021A0008B819C819A8389830FB6F8940F92E98181
:1021B000FA8140815181E981FA81838D282F30E0B5
:1021C000E981FA81848D882F90E0BC01269FC001AF
:1021D000279F900D369F900D1124840F951FE98144
:1021E000FA8195838483E981FA81128EE981FA81EB
:1021F00080819181E981FA8193838283E981FA81E7
:1022000040815181E981FA81838D882F90E09C0182
:1022100021503040E981FA81848D882F90E0BC0103
:10222000269FC001279F900D369F900D1124840F8B
:10223000951FE981FA8197838683E981FA818FEF7F
:10224000858FE981FA818FEF868F8D81882359F4FC
:10225000E981FA818085882381F089819A810896B5
:102260000E94B3250AC089819A8108960E94950C24
:1022700089819A8141960E94950C0F900FBE81E052
:102280000F900F900F900F900F90CF91DF910895C6
:102290000F931F93DF93CF93CDB7DEB729970FB678
:1022A000F894DEBF0FBECDBF8F83688749878885CE
:1022B000882319F41C821B8210C08F81282F30E0E4
:1022C0008885882F90E0AC01249FC001259F900D48
:1022D000349F900D11249C838B838B819C814F961E
:1022E0000E94190C9E838D838D819E810097A1F0A1
:1022F0008D819E819A83898389819A814F969A8361
:10230000898329813A81ED81FE818F816885A901C8
:1023100029858F010E9499118D819E8129960FB682
:10232000F894DEBF0FBECDBFCF91DF911F910F910B
:1023300008950F931F93DF93CF93CDB7DEB7279701
:102340000FB6F894DEBF0FBECDBF89836A835C836E
:102350004B832D831F830E838A81882339F48E81DA
:102360009F81EE81FF819183808306C08B819C8158
:10237000EE81FF8191838083EE81FF818981838F4C
:10238000EE81FF818A81848F8E819F8161E00E942E
:10239000C61027960FB6F894DEBF0FBECDBFCF9103
:1023A000DF911F910F910895DF93CF93CDB7DEB7E3
:1023B0002F970FB6F894DEBF0FBECDBF99878887E1
:1023C0007B876A875D874C872E871C8288859985E5
:1023D0009A8389830FB6F8940F92E981FA81928DDE
:1023E000E981FA81838D981718F08E858230C1F4C7
:1023F00089819A812A853B85B9014E850E941016F4
:102400008B83E981FA818189882329F089819A81E6
:1024100041960E94B3250F900FBE81E08F875CC06C
:102420008C859D85009721F40F900FBE1F8654C0A8
:102430008C81882331F4CE0105960E94992681E093
:102440008C830F900FBE0E9443230FB6F8940F9217
:10245000E981FA81858D8F3F19F4E981FA81158E22
:10246000E981FA81868D8F3F19F4E981FA81168E10
:102470000F900FBECE0105969E01245F3F4FB9011C
:102480000E94B226882309F589819A810E948C17BF
:102490008823A1F089819A8108962C853D85B90110
:1024A0000E94612589819A810E94FD160E944F2316
:1024B000882309F08FCF0E948A0F8CCF89819A815F
:1024C0000E94FD160E944F2385CF89819A810E9428
:1024D000FD160E944F231F868F852F960FB6F89406
:1024E000DEBF0FBECDBFCF91DF910895DF93CF93B5
:1024F000CDB7DEB72C970FB6F894DEBF0FBECDBFB9
:102500009F838E83798768875B874A872C878E8134
:102510009F819B838A831C82EA81FB81928DEA8161
:10252000FB81838D981718F08C85823061F5EA81E4
:10253000FB81868D89838A819B8128853985B901B4
:102540004C850E94101689818F3FA9F4EA81FB8196
:1025500081898823A9F08A819B8141960E94B325B5
:10256000882371F08A859B85009751F0EA85FB8569
:1025700081E0808305C089818F5FEA81FB81868F3E
:1025800081E08D8301C01D828D812C960FB6F89459
:10259000DEBF0FBECDBFCF91DF910895DF93CF9304
:1025A000CDB7DEB72A970FB6F894DEBF0FBECDBF0A
:1025B00098878F837A8769878F8198859C838B839F
:1025C0001D82EB81FC81828D8A83EB81FC81938D5E
:1025D0008A81891748F5EB81FC81868D89838A8100
:1025E0008F5FEB81FC81828F89818F3FA9F4EB8122
:1025F000FC8181898823A9F08B819C8141960E946E
:10260000B325882371F089859A85009751F0E98573
:10261000FA8581E0808305C089818F5FEB81FC8131
:10262000868F81E08E8301C01E828E812A960FB62E
:10263000F894DEBF0FBECDBFCF91DF910895DF9339
:10264000CF93CDB7DEB72E970FB6F894DEBF0FBE8F
:10265000CDBF998788877B876A875D874C871C8277
:10266000888599859B838A830FB6F8940F92EA81B7
:10267000FB81828D898389818823D9F08A819B811E
:102680002A853B85B9010E94B61689818150EA816D
:10269000FB81828FEA81FB818085882329F08A81F2
:1026A0009B8108960E94B3250F900FBE81E08E8714
:1026B00063C08C859D85009721F40F900FBE1E8608
:1026C0005BC08C81882331F4CE0105960E94992647
:1026D00081E08C830F900FBE0E9443230FB6F894C5
:1026E0000F92EA81FB81858D8F3F19F4EA81FB818E
:1026F000158EEA81FB81868D8F3F19F4EA81FB817B
:10270000168E0F900FBECE0105969E01245F3F4F9F
:10271000B9010E94B226882309F58A819B810E9413
:1027200050178823A1F08A819B8141962C853D8595
:10273000B9010E9461258A819B810E94FD160E9439
:102740004F23882309F090CF0E948A0F8DCF8A8172
:102750009B810E94FD160E944F2386CF8A819B8118
:102760000E94FD160E944F238A819B810E94501770
:10277000882309F479CF1E868E852E960FB6F8949D
:10278000DEBF0FBECDBFCF91DF910895DF93CF9312
:10279000CDB7DEB72C970FB6F894DEBF0FBECDBF16
:1027A000998788877B876A871C82888599859B8320
:1027B0008A830FB6F8940F92EA81FB81828D898318
:1027C00089818823A1F089818150EA81FB81828FF0
:1027D000EA81FB818085882329F08A819B81089684
:1027E0000E94B3250F900FBE81E08C8763C08A855D
:1027F0009B85009721F40F900FBE1C865BC08C81D7
:10280000882331F4CE0105960E94992681E08C83BD
:102810000F900FBE0E9443230FB6F8940F92EA81E7
:10282000FB81858D8F3F19F4EA81FB81158EEA814A
:10283000FB81868D8F3F19F4EA81FB81168E0F9004
:102840000FBECE0105969E01265F3F4FB9010E9443
:10285000B226882309F58A819B810E94501788231C
:10286000A1F08A819B8141962A853B85B9010E940E
:1028700061258A819B810E94FD160E944F23882337
:1028800009F097CF0E948A0F94CF8A819B810E9482
:10289000FD160E944F238DCF8A819B810E94FD16D9
:1028A0000E944F238A819B810E945017882309F43C
:1028B00080CF1C868C852C960FB6F894DEBF0FBE99
:1028C000CDBFCF91DF910895DF93CF93CDB7DEB722
:1028D00060970FB6F894DEBF0FBECDBF9B878A8787
:1028E0007D876C875F874E871E828A859B859B8349
:1028F0008A830FB6F8940F92EA81FB81828D8983D7
:102900008981882311F1EA81FB81868197819D83EA
:102910008C838A819B812C853D85B9010E94B616E6
:10292000EA81FB818C819D8197838683EA81FB818B
:102930008189882329F08A819B8141960E94B32551
:102940000F900FBE81E0888B63C08E859F850097B6
:1029500021F40F900FBE188A5BC08E81882331F45A
:10296000CE0107960E94992681E08E830F900FBEBC
:102970000E9443230FB6F8940F92EA81FB81858D64
:102980008F3F19F4EA81FB81158EEA81FB81868DE8
:102990008F3F19F4EA81FB81168E0F900FBECE0196
:1029A00007969E01225F3F4FB9010E94B2268823FD
:1029B00009F58A819B810E9450178823A1F08A81A2
:1029C0009B8141962E853F85B9010E9461258A81B0
:1029D0009B810E94FD160E944F23882309F089CF16
:1029E0000E948A0F86CF8A819B810E94FD160E94D9
:1029F0004F237FCF8A819B810E94FD160E944F2327
:102A00008A819B810E945017882309F472CF188A0B
:102A1000888960960FB6F894DEBF0FBECDBFCF9108
:102A2000DF910895DF93CF93CDB7DEB72C970FB624
:102A3000F894DEBF0FBECDBF98878F837A876987F2
:102A40005C874B878F8198859C838B831D82EB816C
:102A5000FC81828D8A838A81882381F1EB81FC81CC
:102A6000858D89838B819C8129853A85B9010E9456
:102A7000B6168A818150EB81FC81828F89818F3FDC
:102A8000A9F4EB81FC8180858823A9F08B819C814E
:102A900008960E94B325882371F08B859C8500974A
:102AA00051F0EB85FC8581E0808305C089818F5FD3
:102AB000EB81FC81858F81E08E8301C01E828E8137
:102AC0002C960FB6F894DEBF0FBECDBFCF91DF912D
:102AD0000895DF93CF93CDB7DEB72A970FB6F8945A
:102AE000DEBF0FBECDBF98878F837A8769878F81BE
:102AF00098859A8389831D82E981FA81828D882352
:102B0000B1F0E981FA81868197819C838B838981E9
:102B10009A8129853A85B9010E94B616E981FA8120
:102B20008B819C819783868381E08E8301C01E8286
:102B30008E812A960FB6F894DEBF0FBECDBFCF911F
:102B4000DF910895DF93CF9300D00F92CDB7DEB71A
:102B50009B838A830FB6F8940F92EA81FB81828D62
:102B600089830F900FBE89810F900F900F90CF91A6
:102B7000DF910895DF93CF9300D000D00F92CDB7AF
:102B8000DEB79D838C838C819D819A8389830FB668
:102B9000F8940F92E981FA81938DE981FA81828D0F
:102BA000292F281B822F8B830F900FBE8B810F90B4
:102BB0000F900F900F900F90CF91DF910895DF93BA
:102BC000CF9300D000D00F92CDB7DEB79D838C831A
:102BD0008C819D819A838983E981FA81828D8B839F
:102BE0008B810F900F900F900F900F90CF91DF91EE
:102BF0000895DF93CF9300D000D0CDB7DEB79C838C
:102C00008B838B819C819A83898389819A810E949D
:102C10006F0C0F900F900F900F90CF91DF91089550
:102C2000DF93CF93CDB7DEB727970FB6F894DEBF0B
:102C30000FBECDBF9C838B837E836D834F831A82AF
:102C4000EB81FC81828D8983EB81FC81848D8823DB
:102C500009F47DC08F81882399F5EB81FC81628125
:102C60007381EB81FC81848D482F50E02D813E8162
:102C7000CB01B9010E942C32EB81FC81228133818E
:102C8000EB81FC81848D882F90E0820F931FEB8174
:102C9000FC8193838283EB81FC8122813381EB81F0
:102CA000FC81848195812817390708F450C0EB8195
:102CB000FC8180819181EB81FC819383828347C079
:102CC000EB81FC8166817781EB81FC81848D482FCB
:102CD00050E02D813E81CB01B9010E942C32EB8165
:102CE000FC8126813781EB81FC81848D882F90E0E7
:102CF000909581959F4F820F931FEB81FC81978365
:102D00008683EB81FC8126813781EB81FC81808188
:102D100091812817390790F4EB81FC81248135815A
:102D2000EB81FC81848D882F90E0909581959F4F59
:102D3000820F931FEB81FC81978386838F81823082
:102D400031F48981882319F08981815089838981AF
:102D50008F5FEB81FC81828F8A8127960FB6F89472
:102D6000DEBF0FBECDBFCF91DF910895DF93CF932C
:102D700000D000D0CDB7DEB79A8389837C836B8384
:102D8000E981FA81848D882389F1E981FA8126819C
:102D90003781E981FA81848D882F90E0820F931F1B
:102DA000E981FA8197838683E981FA8126813781D7
:102DB000E981FA81848195812817390740F0E981FA
:102DC000FA8180819181E981FA8197838683E98103
:102DD000FA8146815781E981FA81848D282F30E07C
:102DE0008B819C81BA01A9010E942C320F900F9017
:102DF0000F900F90CF91DF910895DF93CF9300D084
:102E000000D0CDB7DEB79C838B830FB6F8940F92BA
:102E1000EB81FC81868D8A8311C0EB81FC818189E5
:102E2000882379F08B819C8141960E94B325882369
:102E300011F00E941F278A8181508A838A81181687
:102E400064F3EB81FC818FEF868F0F900FBE0FB67E
:102E5000F8940F92EB81FC81858D898311C0EB8101
:102E6000FC818085882379F08B819C8108960E9463
:102E7000B325882311F00E941F27898181508983FF
:102E80008981181664F3EB81FC818FEF858F0F9099
:102E90000FBE0F900F900F900F90CF91DF9108957C
:102EA000DF93CF9300D00F92CDB7DEB79B838A8399
:102EB0000FB6F8940F92EA81FB81828D882319F472
:102EC00081E0898301C019820F900FBE89810F9024
:102ED0000F900F90CF91DF910895DF93CF9300D0A3
:102EE00000D00F92CDB7DEB79D838C838C819D81FE
:102EF0009A838983E981FA81828D882319F481E09C
:102F00008B8301C01B828B810F900F900F900F90CD
:102F10000F90CF91DF910895DF93CF9300D00F9260
:102F2000CDB7DEB79B838A830FB6F8940F92EA8100
:102F3000FB81928DEA81FB81838D981719F481E0E2
:102F4000898301C019820F900FBE89810F900F9065
:102F50000F90CF91DF910895DF93CF9300D000D0F1
:102F60000F92CDB7DEB79D838C838C819D819A8330
:102F70008983E981FA81928DE981FA81838D98179D
:102F800019F481E08B8301C01B828B810F900F901D
:102F90000F900F900F90CF91DF9108950F93DF93D3
:102FA000CF93CDB7DEB728970FB6F894DEBF0FBE2C
:102FB000CDBF9D838C837F836E83488788858130D6
:102FC00019F481E0898301C019828E819F81009765
:102FD00021F481E090E09F838E838C819D81019616
:102FE0009D838C838C819D810F960E94190C9B83FD
:102FF0008A838A819B81009789F06A817B818A819B
:103000009B819C01215F3F4F4C815D81EE81FF815F
:10301000CB01B9019F0109810E94261F8A819B81F2
:1030200028960FB6F894DEBF0FBECDBFCF91DF91CB
:103030000F910895DF93CF9300D000D0CDB7DEB7C6
:103040009C838B838B819C819A838983E981FA811C
:103050008685882F90E082709070009729F489818E
:103060009A810E946F0C08C089819A8160E070E0AB
:103070004FE050E00E9435320F900F900F900F906C
:10308000CF91DF9108950F93DF93CF9300D000D0BD
:103090000F92CDB7DEB79D838C838C819D819B83FE
:1030A0008A8319820FB6F8940F92EA81FB8180859A
:1030B00091850097F1F4EA81FB81828593850097E1
:1030C000C1F4EA81FB8124853585EA81FB81448155
:1030D0005581EA81FB81A681B781EA81FB81E68582
:1030E0008A819B81B9019D010E2F0E94261F81E0DC
:1030F00089830F900FBE89810F900F900F900F90D2
:103100000F90CF91DF910F910895DF93CF93CDB7BB
:10311000DEB727970FB6F894DEBF0FBECDBF9D83F5
:103120008C837F836E838C819D819B838A838E8138
:103130009F81009721F481E090E09F838E83EA8154
:10314000FB81248135818E819F812817390748F0C2
:10315000EA81FB818E819F819783868381E08983C9
:1031600001C01982898127960FB6F894DEBF0FBE81
:10317000CDBFCF91DF910895DF93CF9300D000D0E2
:1031800000D0CDB7DEB79E838D838D819E819C83D9
:103190008B83EB81FC8124813581EB81FC818081F3
:1031A0009181820F931F9A838983EB81FC81228115
:1031B000338189819A81821B930B9A8389838981C8
:1031C0009A8101979A838983EB81FC8124813581DF
:1031D00089819A818217930750F0EB81FC812481C9
:1031E000358189819A81821B930B9A838983898196
:1031F0009A8126960FB6F894DEBF0FBECDBFCF9151
:10320000DF910895DF93CF9300D000D000D0CDB7E9
:10321000DEB79E838D838D819E819C838B838B8182
:103220009C810E94EC1E9A83898389819A812696CB
:103230000FB6F894DEBF0FBECDBFCF91DF910895DA
:10324000EF92FF920F931F93DF93CF93CDB7DEB72B
:1032500063970FB6F894DEBF0FBECDBF9D878C87F6
:103260007F876E87598B488B3B8B2A8B8C859D85FE
:1032700098878F831C821B82888999899A83898386
:10328000EF81F8858685882F90E081709070882383
:1032900029F089819A8102969A8389838A899B89F8
:1032A000009709F440C0CE0109960E947B260FB614
:1032B000F8940F928F8198850E94BC189C838B8311
:1032C0002B813C8189819A812817390750F580E04C
:1032D00090E00E94852B0E94E627EF81F885938776
:1032E00082870F900FBEEA89FB8960E070E080E082
:1032F00090E020E030E040E050E000E010E07F01AE
:103300000E949628EF81F88513861286CE010996D1
:103310009E012E5E3F4FB9010E94B226882339F2EA
:1033200002C00F900FBE8B819C81009731F48F817A
:1033300098850E94BC189C838B838F8198852E85ED
:103340003F8548895989EB81FC81A981BA81B901FE
:103350009F018D010E94651A9E838D838D819E81C0
:10336000009739F18F8198850E94EC1E9C01EF81B6
:10337000F8858681978128173907D8F00E94432362
:10338000EF81F88580859185009789F0EF81F88538
:103390008085918540E050E060E070E020E000E052
:1033A00010E00E943229EF81F885118610860E9474
:1033B0004F238D819E8163960FB6F894DEBF0FBEBA
:1033C000CDBFCF91DF911F910F91FF90EF900895A6
:1033D000EF92FF920F931F93DF93CF93CDB7DEB79A
:1033E00061970FB6F894DEBF0FBECDBF9B878A876B
:1033F0007D876C875F874E87398B288B8A859B8575
:10340000998788878E859F859B838A83E885F98540
:103410008685882F90E081709070882329F08A81BA
:103420009B8102969B838A83888599850E94BC181C
:103430009D838C83888599852C853D854E855F8508
:10344000EC81FD81AA81BB81B9019F018D010E94A0
:10345000651A9F838E838E819F81009739F18885BD
:1034600099850E94EC1E9C01E885F98586819781EB
:1034700028173907D8F01982E885F9858085918564
:103480000097A1F0E885F98580859185E889F9891B
:1034900040E050E060E070E020E000E010E07F01FC
:1034A0000E94072AE885F985118610868E819F8102
:1034B00061960FB6F894DEBF0FBECDBFCF91DF91FE
:1034C0001F910F91FF90EF9008950F931F93DF933B
:1034D000CF93CDB7DEB761970FB6F894DEBF0FBEBE
:1034E000CDBF9D838C837F836E83598748873B87BD
:1034F0002A871D870C878A859B85009711F41B827C
:1035000038C0EC81FD818685882F90E081709070B5
:103510000097D1F481E08B8328853985398B288BFE
:103520008A859B859F878E872E853F858889998987
:103530008217930720F4288939893F872E878E8543
:103540009F859987888715C02A853B858C859D85B1
:103550002817390768F081E08B839E01285F3F4F71
:103560008C819D81B90142E050E00E94B21D01C0F2
:103570001B828B81882361F02E813F81488559858C
:103580008C819D81B9010E94B21D9A83898302C0FA
:103590001A82198289819A8161960FB6F894DEBFEA
:1035A0000FBECDBFCF91DF911F910F910895EF9284
:1035B000FF920F931F93DF93CF93CDB7DEB7609742
:1035C0000FB6F894DEBF0FBECDBF9A8789877C8780
:1035D0006B875E874D87388B2F8789859A8598877B
:1035E0008F831E821D82EF81F8858685882F90E06B
:1035F00081709070882329F082E090E09A8389831B
:1036000002C01A8219828F859889009709F43DC0FB
:103610000FB6F8940F928F8198850E94EC1E9C83C0
:103620008B832B813C8189819A818217930750F08B
:1036300080E090E00E94852B0E94E627EF81F885CC
:10364000918780870F900FBE2B813C8189819A8161
:103650008217930700F1EF85F88960E070E080E061
:1036600090E020E030E040E050E000E010E07F013A
:103670000E949628EF81F885118610868F819885A3
:103680000E94EC1E9C838B8306C08F8198850E94CC
:10369000EC1E9C838B832B813C8189819A818217CC
:1036A000930780F58F8198852B853C854D855E85B8
:1036B000EB81FC81A981BA81B9019F018D010E9432
:1036C0005B1C9E838D838D819E810097D9F00E9423
:1036D0004323EF81F88582859385009789F0EF81F8
:1036E000F8858285938540E050E060E070E020E05E
:1036F00000E010E00E943229EF81F88513861286DF
:103700000E944F238D819E8160960FB6F894DEBF94
:103710000FBECDBFCF91DF911F910F91FF90EF9022
:103720000895DF93CF93CDB7DEB72C970FB6F894FB
:10373000DEBF0FBECDBF9C878B878B859C8598870E
:103740008F83EF81F8858685882F90E08170907057
:10375000882361F18F8198850E94EC1E9C838B8366
:103760008B819C8183309105F0F0EF81F885808119
:1037700091819A8389839E01275F3F4F8F8198852E
:10378000EB81FC81B90142E050E09F010E943F1EA5
:1037900089859A859E838D83EF81F88589819A81B9
:1037A0009183808305C01E821D8202C01E821D82FD
:1037B0008D819E812C960FB6F894DEBF0FBECDBFD3
:1037C000CF91DF910895EF92FF920F931F93DF93B4
:1037D000CF93CDB7DEB761970FB6F894DEBF0FBEBB
:1037E000CDBF9B878A877D876C875F874E87398BA4
:1037F000288B8A859B85998788871F821E82E8850A
:10380000F9858685882F90E081709070882329F053
:1038100082E090E09B838A8302C01B821A828885A3
:1038200099850E94EC1E9D838C832C813D818A8129
:103830009B818217930780F5888599852C853D8526
:103840004E855F85EC81FD81AA81BB81B9019F0115
:103850008D010E945B1C9F838E838E819F810097C8
:10386000D9F01982E885F985828593850097A1F0C2
:10387000E885F98582859385E889F98940E050E0FB
:1038800060E070E020E000E010E07F010E94072A85
:10389000E885F985138612868E819F8161960FB621
:1038A000F894DEBF0FBECDBFCF91DF911F910F9176
:1038B000FF90EF9008950F931F93DF93CF93CDB7B1
:1038C000DEB762970FB6F894DEBF0FBECDBF9A8702
:1038D00089877C876B875E874D87388B2F871A8B0C
:1038E000098B89899A89009791F1E985FA85808108
:1038F00091819E838D83AE01495F5F4F89859A8553
:1039000029893A89EF85F889BA01A9019F010E94A6
:103910003F1E8F8198859A8389832F85388989896D
:103920009A89A901481B590BCA01988B8F87298155
:103930003A818D859E858217930768F4E985FA851B
:103940008D819E81918380831A82198204C08D8526
:103950009E859A8389834B855C8589859A85298193
:103960003A81EF85F889BA01A9019F010E943F1EA3
:103970009C838B838B819C8162960FB6F894DEBF0B
:103980000FBECDBFCF91DF911F910F910895DF93AF
:10399000CF93CDB7DEB727970FB6F894DEBF0FBE33
:1039A000CDBF9F838E838E819F819D838C83EC818D
:1039B000FD81808191819A838983EC81FD812281BF
:1039C000338189819A812817390719F481E08B8323
:1039D00001C01B828B8127960FB6F894DEBF0FBE05
:1039E000CDBFCF91DF910895DF93CF93CDB7DEB7F1
:1039F00027970FB6F894DEBF0FBECDBF9F838E838F
:103A00008E819F819A838983E981FA818685882FB7
:103A100090E081709070882329F082E090E09C8390
:103A20008B8302C01C821B828E819F810E94BC18E6
:103A30009C018B819C818217930718F081E08D8314
:103A400001C01D828D8127960FB6F894DEBF0FBE90
:103A5000CDBFCF91DF910895EF92FF920F931F9307
:103A6000DF93CF93CDB7DEB728970FB6F894DEBFBC
:103A70000FBECDBF9E838D8378876F838D819E819E
:103A80009C838B831982EB81FC81808591850097D3
:103A9000B9F0EB81FC8180859185EF81F88540E06C
:103AA00050E060E070E020E000E010E07F010E9464
:103AB000072AEB81FC811186108681E08A8301C090
:103AC0001A828A8128960FB6F894DEBF0FBECDBF4A
:103AD000CF91DF911F910F91FF90EF900895EF929A
:103AE000FF920F931F93DF93CF93CDB7DEB7289745
:103AF0000FB6F894DEBF0FBECDBF9E838D8378874F
:103B00006F838D819E819C838B831982EB81FC81E5
:103B1000828593850097B9F0EB81FC81828593853E
:103B2000EF81F88540E050E060E070E020E000E0E8
:103B300010E07F010E94072AEB81FC811386128628
:103B400081E08A8301C01A828A8128960FB6F89490
:103B5000DEBF0FBECDBFCF91DF911F910F91FF90C0
:103B6000EF900895DF93CF93CDB7DEB72E970FB6C2
:103B7000F894DEBF0FBECDBF9E838D8378876F83A1
:103B80005A874987ED81FE81828193819C838B8353
:103B9000ED81FE81248135818B819C81A901481BA7
:103BA000590BCA0129853A853E872D879C878B87CB
:103BB0004B855C858D859E858417950720F42D8522
:103BC0003E853C872B874B855C855A834983ED81F5
:103BD000FE81248535858B819C81820F931F2F81E7
:103BE000388549815A81B9010E942C3229853A854C
:103BF00089819A8182179307B0F4ED81FE816485F3
:103C000075852F81388589819A81A901480F591FAF
:103C100029853A8589819A81281B390BCB01BA0104
:103C2000A9010E942C322B813C8189859A85820FC3
:103C3000931F9C838B83ED81FE81248135818B8151
:103C40009C818217930750F0ED81FE81248135819C
:103C50008B819C81821B930B9C838B83ED81FE81E6
:103C60008B819C819383828389859A852E960FB65A
:103C7000F894DEBF0FBECDBFCF91DF910895DF93E3
:103C8000CF93CDB7DEB766970FB6F894DEBF0FBE01
:103C9000CDBF98878F837A8769875C874B873E87FC
:103CA0002D872D853E853A8B298B4B855C85588BDE
:103CB0004F878F85988929893A892817390720F4F1
:103CC00049895A89588B4F878F8598899E838D8320
:103CD0008D819E81009709F474C0EF81F885808101
:103CE00091819A838983EF81F88524813581898147
:103CF0009A81A901481B590BCA012D813E813E8B37
:103D00002D8B9C8B8B8B4B895C898D899E8984172D
:103D1000950720F42D893E893C8B2B8B4B895C8940
:103D20005C834B83EF81F8852485358589819A8171
:103D3000A901480F591F89859A852B813C81BA01B9
:103D4000A9010E942C322D813E818B819C8182179A
:103D50009307B0F429853A858B819C81B901680F5E
:103D6000791FEF81F885448555852D813E818B81B2
:103D70009C81281B390BCB01BA01A9010E942C326E
:103D800029813A818D819E81820F931F9A83898335
:103D9000EF81F8852481358189819A818217930783
:103DA00050F0EF81F8852481358189819A81821BC9
:103DB000930B9A838983EF81F88589819A81918316
:103DC00080838D819E8166960FB6F894DEBF0FBE0C
:103DD000CDBFCF91DF910895DF93CF9300D000D076
:103DE000CDB7DEB79C838B83EB81FC812481358149
:103DF000EB81FC8182819381820F931F9A83898357
:103E0000EB81FC812081318189819A81821B930B16
:103E10009A838983EB81FC812481358189819A8110
:103E20008217930750F0EB81FC81248135818981D1
:103E30009A81821B930B9A83898389819A810F903F
:103E40000F900F900F90CF91DF9108950F93DF9314
:103E5000CF93CDB7DEB729970FB6F894DEBF0FBE6C
:103E6000CDBF9A8389837C836B835E834D83388740
:103E70002F83098789819A8160E070E04FE050E0EC
:103E80000E943532E981FA818B819C8195878487F4
:103E9000E981FA818D819E8195838483E981FA810C
:103EA0008F81988597838683E981FA8189858687C2
:103EB00029960FB6F894DEBF0FBECDBFCF91DF912C
:103EC0000F9108958F929F92AF92BF92CF92DF92FF
:103ED000EF92FF920F931F93DF93CF93CDB7DEB78F
:103EE00060970FB6F894DEBF0FBECDBF9F838E8361
:103EF000798768875B874A873D872C870E87F88A92
:103F0000EF868A859B850E94190C9A838983898113
:103F10009A810097B1F08EE290E00E94190C9D8387
:103F20008C838C819D81009739F0EC81FD818981A2
:103F30009A81908F878B07C089819A810E946F0C2C
:103F400002C01D821C828C819D810097E9F08A85C8
:103F50009B859C0140E050E08E819F81688579853A
:103F6000EC85FD85AF85B889AC80BD808F01EE847E
:103F70006D01882499240E94DA1F8C819D810E9402
:103F8000962081E08B8302C08FEF8B838B816096BC
:103F90000FB6F894DEBF0FBECDBFCF91DF911F915A
:103FA0000F91FF90EF90DF90CF90BF90AF909F90D8
:103FB0008F9008958F929F92AF92BF92CF92DF928F
:103FC000EF920F931F93DF93CF93CDB7DEB7649734
:103FD0000FB6F894DEBF0FBECDBF9D838C837F8369
:103FE0006E83288739874A875B871D870C87EE8613
:103FF000D88ACF86BA8AA98A9C8A8B8AE989FA8963
:104000002789308D888599850197820F931F9B831F
:104010008A838E819F81009751F1198221C0898105
:10402000482F50E08981282F30E08E819F81FC014C
:10403000E20FF31F208189899A89840F951FFC0163
:10404000799620838981282F30E08E819F81FC0121
:10405000E20FF31F8081882331F089818F5F89838C
:1040600089818031E0F2E989FA8910A603C0E989E3
:10407000FA89118E8E85843010F083E08E87E9896D
:10408000FA898E85868B89899A8902960E94BF0C4F
:1040900089899A890C960E94BF0CE989FA898989D5
:1040A0009A89918780878E85282F30E084E090E080
:1040B000821B930BE989FA8995878487E989FA89B4
:1040C00089899A89938B828BE989FA8911A612A62C
:1040D00013A614A6E989FA8915A68A819B812C81E9
:1040E0003D814C855D85B9010E94CB0DE989FA8936
:1040F000918380838F859889009731F0EF85F889C7
:1041000089899A899183808364960FB6F894DEBF7B
:104110000FBECDBFCF91DF911F910F91EF90DF9038
:10412000CF90BF90AF909F908F900895DF93CF93E3
:1041300000D000D0CDB7DEB79A8389830FB6F8944C
:104140000F928091D7068F5F8093D7068091D40617
:104150009091D506009769F489819A819093D5064C
:104160008093D4068091D7068130B9F40E94352718
:1041700014C08091DB06882381F4E091D406F0918D
:10418000D5069689E981FA818689891730F0898177
:104190009A819093D5068093D4068091DF068F5F35
:1041A0008093DF06E981FA8196898091DA06891782
:1041B00028F4E981FA8186898093DA06E981FA8117
:1041C0008689282F30E0C901880F991F880F991F11
:1041D000880F991F820F931FAC014B51594F898152
:1041E0009A819C012E5F3F4FCA01B9010E94CF0CFA
:1041F0000F900FBE8091DB06882321F08091D406BA
:104200009091D5060F900F900F900F90CF91DF9166
:104210000895DF93CF9300D000D000D0CDB7DEB7A4
:104220009C838B830FB6F8940F928B819C810097AF
:1042300039F48091D4069091D5069E838D8304C075
:104240008B819C819E838D838D819E819A838983BE
:1042500089819A8102960E947F0DE981FA81848981
:104260009589009729F089819A810C960E947F0D8B
:104270008091DF068F5F8093DF062091D406309116
:10428000D50689819A818217930781F489819A8161
:104290009C012E5F3F4F88E297E0B9010E94CF0C4E
:1042A0008091D6068F5F8093D6060BC08091D7068B
:1042B00081508093D70689819A810E94A5270E9408
:1042C000BB270F900FBE8091DB06882359F0209109
:1042D000D4063091D50689819A818217930711F40B
:1042E0000E948A0F26960FB6F894DEBF0FBECDBF90
:1042F000CF91DF910895DF93CF9300D00F92CDB788
:10430000DEB79B838A8319828A819B81009751F053
:104310000E9443238A819B8160E00E94BF2B0E9400
:104320004F2389838981882311F40E948A0F0F907B
:104330000F900F90CF91DF910895DF93CF9300D02E
:1043400000D000D0CDB7DEB79C838B830FB6F89436
:104350000F928B819C81009739F48091D4069091C3
:10436000D5069E838D8304C08B819C819E838D8323
:104370008D819E819A83898389819A8102960E9488
:104380007F0DE981FA8184899589009729F08981D7
:104390009A810C960E947F0D89819A819C012E5FE3
:1043A0003F4F81E397E0B9010E94CF0CE981FA8188
:1043B00085A5813019F4E981FA8115A60F900FBE09
:1043C0008091DB06882339F00FB6F8940F920E9493
:1043D000BB270F900FBE2091D4063091D50689815E
:1043E0009A8182179307A1F48091DB06882319F044
:1043F0000E948A0F0DC0909131078091D7069817BF
:1044000029F41092D5061092D40602C00E94F4241A
:1044100026960FB6F894DEBF0FBECDBFCF91DF91C9
:104420000895DF93CF9300D000D00F92CDB7DEB7C1
:104430009D838C831B828C819D819A838983E981F2
:10444000FA818285938527E08133920781F4E9819F
:10445000FA818489958927E08F31920741F0E981BB
:10446000FA8184899589009711F481E08B838B818F
:104470000F900F900F900F900F90CF91DF910895B4
:10448000DF93CF9300D000D000D0CDB7DEB79C83B0
:104490008B838B819C819A8389832091D406309170
:1044A000D50689819A818217930709F43FC08981D3
:1044B0009A81009709F43AC00FB6F8940F92898157
:1044C0009A810E941122882379F189819A8102962A
:1044D0000E947F0DE981FA8196898091DA06891719
:1044E00028F4E981FA8186898093DA06E981FA81E4
:1044F0008689282F30E0C901880F991F880F991FDE
:10450000880F991F820F931FAC014B51594F89811E
:104510009A819C012E5F3F4FCA01B9010E94CF0CC6
:104520008091D4069091D5060F900FBE26960FB6B7
:10453000F894DEBF0FBECDBFCF91DF910895DF931A
:10454000CF9300D000D000D0CDB7DEB79E838D834F
:104550001C828D819E819B838A8319828A819B81A3
:104560000E941122882309F446C08091E406882322
:10457000C1F5EA81FB819689E091D406F091D506D8
:104580008689981710F081E08C838A819B8102963E
:104590000E947F0DEA81FB8196898091DA06891756
:1045A00028F4EA81FB8186898093DA06EA81FB811F
:1045B0008689282F30E0C901880F991F880F991F1D
:1045C000880F991F820F931FAC014B51594F8A815D
:1045D0009B819C012E5F3F4FCA01B9010E94CF0C05
:1045E0000AC08A819B819C01245F3F4F8FE197E045
:1045F000B9010E94CF0C8C8126960FB6F894DEBFCD
:104600000FBECDBFCF91DF910895EF92FF920F9330
:10461000DF93CF930F92CDB7DEB789E297E220E622
:1046200030E0E2EEF6E0B90145E550E020E030E0B0
:1046300000E07F010E94621F89838981813081F4BB
:10464000F8948FEF9FEF9093E1068093E00681E06E
:104650008093DB061092D9061092D8060E944E0F66
:104660000F90CF91DF910F91FF90EF900895DF931E
:10467000CF93CDB7DEB7F8941092DB060E94830F7C
:10468000CF91DF910895DF93CF93CDB7DEB78091BF
:10469000E4068F5F8093E406CF91DF910895DF9366
:1046A000CF9300D000D00F92CDB7DEB71C821B8213
:1046B0001A820FB6F8940F928091E406815080938D
:1046C000E4068091E406882309F06DC08091D70646
:1046D000882309F468C045C0E0912407F0912507BC
:1046E000868197819C838B838B819C810C960E9411
:1046F0007F0D8B819C8102960E947F0DEB81FC8156
:1047000096898091DA06891728F4EB81FC818689E5
:104710008093DA06EB81FC818689282F30E0C9017D
:10472000880F991F880F991F880F991F820F931F59
:10473000AC014B51594F8B819C819C012E5F3F4FA7
:10474000CA01B9010E94CF0CEB81FC819689E091EE
:10475000D406F091D5068689981718F081E08093E9
:10476000DD0680911F07882309F0B6CF8B819C81DD
:10477000009711F00E94BB278091DC068983898114
:10478000882379F00E943B24882319F081E08093EC
:10479000DD068981815089838981882399F7109268
:1047A000DC068091DD060F900FBE8A810F900F907E
:1047B0000F900F900F90CF91DF910895DF93CF93DB
:1047C00000D0CDB7DEB70FB6F8940F928091D8061F
:1047D0009091D9069A8389830F900FBE89819A811F
:1047E0000F900F90CF91DF910895DF93CF9300D07A
:1047F0000F92CDB7DEB719828091D8069091D90675
:104800009B838A838A819B810F900F900F90CF9119
:10481000DF910895DF93CF93CDB7DEB78091D706B0
:10482000CF91DF910895DF93CF9300D000D000D0D7
:10483000CDB7DEB79C838B838B819C81009739F445
:104840008091D4069091D5069E838D8304C08B8180
:104850009C819E838D838D819E819A8389838981AA
:104860009A81499626960FB6F894DEBF0FBECDBF4B
:10487000CF91DF910895DF93CF93CDB7DEB729971E
:104880000FB6F894DEBF0FBECDBF1D828091E40647
:10489000882309F09AC08091D8069091D906019694
:1048A0009C838B838B819C819093D9068093D806BF
:1048B0008B819C810097D9F480911B0790911C07F4
:1048C0009A83898380911D0790911E0790931C07FE
:1048D00080931B0789819A8190931E0780931D07FF
:1048E0008091DE068F5F8093DE060E94BB272091B9
:1048F000E0063091E1068B819C818217930708F4D2
:1049000069C0E0911B07F0911C078081882339F46E
:104910008FEF9FEF9093E1068093E0065BC0E091FC
:104920001B07F0911C070580F681E02D8681978199
:1049300099878887E885F985828193819F838E8313
:104940002B813C818E819F812817390738F48E8115
:104950009F819093E1068093E0063CC0888599850D
:1049600002960E947F0DE885F985848995890097D4
:1049700029F0888599850C960E947F0DE885F98538
:1049800096898091DA06891728F4E885F985868961
:104990008093DA06E885F9858689282F30E0C901F9
:1049A000880F991F880F991F880F991F820F931FD7
:1049B000AC014B51594F888599859C012E5F3F4F23
:1049C000CA01B9010E94CF0C9CCF8091DC068F5F99
:1049D0008093DC068D8129960FB6F894DEBF0FBE5A
:1049E000CDBFCF91DF910895DF93CF9300D00F9289
:1049F000CDB7DEB78091E406882321F081E0809373
:104A0000DD0659C01092DD068091DA068B8303C063
:104A10008B8181508B838B81282F30E0C901880FD7
:104A2000991F880F991F880F991F820F931FFC01F0
:104A3000EB51F94F8081882359F38B81282F30E087
:104A4000C901880F991F880F991F880F991F820F1E
:104A5000931F8B51994F9A838983E981FA81018051
:104A6000F281E02D82819381E981FA8192838183B1
:104A7000E981FA812181328189819A8103962817FF
:104A8000390759F4E981FA810180F281E02D8281B0
:104A90009381E981FA8192838183E981FA8101809E
:104AA000F281E02D868197819093D5068093D4067C
:104AB0008B818093DA060F900F900F90CF91DF914A
:104AC0000895DF93CF9300D000D0CDB7DEB79A839F
:104AD00089837C836B838091D4069091D5069C0159
:104AE000245F3F4F89819A81B9010E94130D8B8108
:104AF0009C8161E00E94BF2B0F900F900F900F9050
:104B0000CF91DF910895DF93CF9300D000D000D0F4
:104B1000CDB7DEB79A8389837C836B835E834D83B5
:104B2000E091D406F091D5068B819C8190689587A1
:104B300084878091D4069091D5069C01245F3F4FD5
:104B400089819A81B9010E94CF0C8D819E8161E09B
:104B50000E94BF2B26960FB6F894DEBF0FBECDBFC6
:104B6000CF91DF910895DF93CF9300D000D00F92C3
:104B7000CDB7DEB79D838C83EC81FD810580F68106
:104B8000E02D868197819B838A838A819B810C9605
:104B90000E947F0D8091E406882361F58A819B81C4
:104BA00002960E947F0DEA81FB8196898091DA0648
:104BB000891728F4EA81FB8186898093DA06EA81E5
:104BC000FB818689282F30E0C901880F991F880F43
:104BD000991F880F991F820F931FAC014B51594F9A
:104BE0008A819B819C012E5F3F4FCA01B9010E94BF
:104BF000CF0C0AC08A819B819C01245F3F4F8FE1CB
:104C000097E0B9010E94CF0CEA81FB819689E0917F
:104C1000D406F091D5068689891730F481E089831E
:104C200081E08093DD0601C0198289810F900F9089
:104C30000F900F900F90CF91DF910895DF93CF9356
:104C400000D000D000D0CDB7DEB79C838B837E83AD
:104C50006D838D819E819068EB81FC81918380833F
:104C6000EB81FC81868197819A8389838B819C81EA
:104C70000E947F0D89819A8102960E947F0DE981B1
:104C8000FA8196898091DA06891728F4E981FA81F8
:104C900086898093DA06E981FA818689282F30E0B7
:104CA000C901880F991F880F991F880F991F820FBC
:104CB000931FAC014B51594F89819A819C012E5F02
:104CC0003F4FCA01B9010E94CF0CE981FA81968950
:104CD000E091D406F091D5068689891718F481E011
:104CE0008093DD0626960FB6F894DEBF0FBECDBFCB
:104CF000CF91DF910895DF93CF9300D0CDB7DEB78A
:104D00009A8389830FB6F8940F928091DE06E98129
:104D1000FA8180838091D8069091D906E981FA8141
:104D2000928381830F900FBE0F900F90CF91DF91F0
:104D30000895DF93CF9300D0CDB7DEB79A838983F0
:104D40008091DE06E981FA8180838091D806909176
:104D5000D906E981FA81928381830F900F90CF91D8
:104D6000DF910895DF93CF93CDB7DEB729970FB6C4
:104D7000F894DEBF0FBECDBF9F838E83798768878F
:104D80000FB6F8940F928091D8069091D9069C8323
:104D90008B83EE81FF81218132818B819C81821BFB
:104DA000930B9A838983E885F985808191812FEF20
:104DB0008F3F920711F41D8236C0EE81FF819081F2
:104DC0008091DE06981761F0EE81FF8121813281AA
:104DD0008B819C818217930718F081E08D8323C01B
:104DE000E885F9852081318189819A81821793072D
:104DF000A0F4E885F9852081318189819A81A90112
:104E0000481B590BCA01E885F985918380838E81FF
:104E10009F810E9499261D8206C0E885F98511822E
:104E2000108281E08D830F900FBE8D8129960FB681
:104E3000F894DEBF0FBECDBFCF91DF910895DF9311
:104E4000CF93CDB7DEB781E08093DD06CF91DF91C0
:104E50000895DF93CF9300D0CDB7DEB79A838983CF
:104E60000E9476270E948A0FFBCFDF93CF930F9289
:104E7000CDB7DEB7198213C08981282F30E0C90170
:104E8000880F991F880F991F880F991F820F931FF2
:104E90008B51994F0E94950C89818F5F89838981FD
:104EA000843050F389E097E00E94950C82E197E00E
:104EB0000E94950C8FE197E00E94950C88E297E0A4
:104EC0000E94950C81E397E00E94950C89E097E0A1
:104ED00090931C0780931B0782E197E090931E0735
:104EE00080931D070F90CF91DF910895DF93CF93AB
:104EF00000D0CDB7DEB720C00FB6F8940F92E09186
:104F00002D07F0912E07868197819A838983898165
:104F10009A8102960E947F0D8091D70681508093DE
:104F2000D7068091D60681508093D6060F900FBE8B
:104F300089819A810E94A5278091D6068823E1F66F
:104F40000F900F90CF91DF910895DF93CF9300D012
:104F5000CDB7DEB79A838983E981FA818789908DFD
:104F60000E946F0C89819A810E946F0C0F900F90A4
:104F7000CF91DF910895DF93CF9300D0CDB7DEB707
:104F8000E0911B07F0911C078081882339F48FEF93
:104F90009FEF9093E1068093E00613C0E0911B071A
:104FA000F0911C070580F681E02D868197819A8318
:104FB0008983E981FA81828193819093E1068093CC
:104FC000E0060F900F90CF91DF910895DF93CF937C
:104FD00000D0CDB7DEB78091D4069091D5069A83E4
:104FE000898389819A810F900F90CF91DF910895E5
:104FF000DF93CF9300D0CDB7DEB7E091D406F09128
:10500000D506848595859A838983A091D406B0912D
:10501000D506E091D406F091D5068689282F30E098
:1050200084E090E0821B930B1D969C938E931C97BB
:1050300089819A810F900F90CF91DF910895DF932E
:10504000CF93CDB7DEB727970FB6F894DEBF0FBE6C
:10505000CDBF8D837F836E830FB6F8940F92E0915E
:10506000D406F091D50681A592A5A3A5B4A5009775
:10507000A105B10589F4E091D406F091D50681E04F
:1050800085A78E819F81009739F08E819F8161E095
:105090000E94BF2B0E948A0F0F900FBE0FB6F8948C
:1050A0000F92E091D406F091D50681A592A5A3A513
:1050B000B4A589839A83AB83BC8389819A81AB81B0
:1050C000BC810097A105B105D9F08D81882349F0F5
:1050D000E091D406F091D50611A612A613A614A647
:1050E0000FC0E091D406F091D50689819A81AB81F9
:1050F000BC810197A109B10981A792A7A3A7B4A771
:10510000E091D406F091D50615A60F900FBE8981C7
:105110009A81AB81BC81BC01CD0127960FB6F89472
:10512000DEBF0FBECDBFCF91DF910895EF92FF920A
:105130000F931F93DF93CF93CDB7DEB72D970FB6A5
:10514000F894DEBF0FBECDBF6A837B838C839D83C3
:105150002E833F83488759871B870A87FD86EC8605
:105160000FB6F8940F92E091D406F091D50685A57C
:10517000823049F1E091D406F091D50621A532A5FF
:1051800043A554A58A819B81AC81BD818095909572
:10519000A095B09582239323A423B52381A792A73A
:1051A000A3A7B4A7E091D406F091D50681E085A726
:1051B0008C859D85009739F08C859D8561E00E94E6
:1051C000BF2B0E948A0F0F900FBE0FB6F8940F925C
:1051D0008A859B85009771F0E091D406F091D50601
:1051E00081A592A5A3A5B4A5EA85FB8580839183BB
:1051F000A283B383E091D406F091D50685A58230D1
:1052000011F019821AC0E091D406F091D50621A5BB
:1052100032A543A554A58E819F81A885B985809527
:105220009095A095B09582239323A423B52381A7BD
:1052300092A7A3A7B4A781E08983E091D406F09157
:10524000D50615A60F900FBE89812D960FB6F8943E
:10525000DEBF0FBECDBFCF91DF911F910F91FF90A9
:10526000EF9008950F931F93DF93CF93CDB7DEB7E1
:1052700061970FB6F894DEBF0FBECDBF9E838D83BE
:105280004F83588769877A872B871D870C8781E032
:105290008A838D819E819C838B830FB6F8940F92B5
:1052A0008C859D85009761F0EB81FC8181A592A59D
:1052B000A3A5B4A5EC85FD8580839183A283B383E8
:1052C000EB81FC8185A58983EB81FC8182E085A748
:1052D0008B85282F30E0398B288B888999898230FB
:1052E000910559F1288939892330310534F48889A9
:1052F00099898130910561F04AC028893989233024
:10530000310559F1888999898430910589F13FC027
:10531000EB81FC8121A532A543A554A58F819885F9
:10532000A985BA85822B932BA42BB52BEB81FC810D
:1053300081A792A7A3A7B4A72AC0EB81FC8181A56E
:1053400092A5A3A5B4A50196A11DB11DEB81FC8179
:1053500081A792A7A3A7B4A71AC0EB81FC818F8174
:105360009885A985BA8581A792A7A3A7B4A70FC0DE
:105370008981823059F0EB81FC818F819885A985E4
:10538000BA8581A792A7A3A7B4A701C01A82898171
:10539000813079F58B819C8102960E947F0DEB8193
:1053A000FC8196898091DA06891728F4EB81FC81CB
:1053B00086898093DA06EB81FC818689282F30E08C
:1053C000C901880F991F880F991F880F991F820F95
:1053D000931FAC014B51594F8B819C819C012E5FD7
:1053E0003F4FCA01B9010E94CF0C2091D4063091E1
:1053F000D5060F900FBE8A8161960FB6F894DEBF76
:105400000FBECDBFCF91DF911F910F910895EF9205
:10541000FF920F931F93DF93CF93CDB7DEB76297C1
:105420000FB6F894DEBF0FBECDBF9F838E83488733
:1054300059876A877B872C871E870D87F88AEF86B6
:1054400081E08A838E819F819D838C8319828D85E3
:105450009E85009761F0EC81FD8181A592A5A3A5B1
:10546000B4A5ED85FE8580839183A283B383EC810F
:10547000FD8185A58B83EC81FD8182E085A78C85EC
:10548000282F30E03A8B298B89899A8982309105BF
:1054900059F129893A892330310534F489899A8967
:1054A0008130910561F04AC029893A89233031055C
:1054B00059F189899A898430910589F13FC0EC813D
:1054C000FD8121A532A543A554A588859985AA8586
:1054D000BB85822B932BA42BB52BEC81FD8181A75F
:1054E00092A7A3A7B4A72AC0EC81FD8181A592A5AC
:1054F000A3A5B4A50196A11DB11DEC81FD8181A7D5
:1055000092A7A3A7B4A71AC0EC81FD8188859985CD
:10551000AA85BB8581A792A7A3A7B4A70FC08B813B
:10552000823059F0EC81FD8188859985AA85BB85FB
:1055300081A792A7A3A7B4A701C01A828B8181304B
:1055400009F04FC08091E406882361F58C819D812C
:1055500002960E947F0DEC81FD8196898091DA068A
:10556000891728F4EC81FD8186898093DA06EC8125
:10557000FD818689282F30E0C901880F991F880F87
:10558000991F880F991F820F931FAC014B51594FE0
:105590008C819D819C012E5F3F4FCA01B9010E9401
:1055A000CF0C0AC08C819D819C01245F3F4F8FE10D
:1055B00097E0B9010E94CF0CEC81FD819689E091C2
:1055C000D406F091D5068689891758F48F85988975
:1055D000009721F0EF85F88981E0808381E0809356
:1055E000DD068A8162960FB6F894DEBF0FBECDBF8E
:1055F000CF91DF911F910F91FF90EF900895DF936E
:10560000CF93CDB7DEB728970FB6F894DEBF0FBEA5
:10561000CDBF9E838D8378876F838D819E819C8390
:105620008B831982EB81FC8185A58A83EB81FC81C8
:1056300082E085A7EB81FC8181A592A5A3A5B4A5F5
:105640000196A11DB11DEB81FC8181A792A7A3A7A3
:10565000B4A78A81813009F04FC08091E406882385
:1056600061F58B819C8102960E947F0DEB81FC810C
:1056700096898091DA06891728F4EB81FC81868966
:105680008093DA06EB81FC818689282F30E0C901FE
:10569000880F991F880F991F880F991F820F931FDA
:1056A000AC014B51594F8B819C819C012E5F3F4F28
:1056B000CA01B9010E94CF0C0AC08B819C819C0158
:1056C000245F3F4F8FE197E0B9010E94CF0CEB813F
:1056D000FC819689E091D406F091D50686898917D8
:1056E00058F48F819885009721F0EF81F88581E04B
:1056F000808381E08093DD0628960FB6F894DEBFA4
:105700000FBECDBFCF91DF910895DF93CF93CDB77B
:10571000DEB727970FB6F894DEBF0FBECDBF9D83CF
:105720008C838C819D81009739F48091D40690916F
:10573000D5069F838E8304C08C819D819F838E8339
:105740008E819F819B838A830FB6F8940F92EA81A2
:10575000FB8185A5823031F4EA81FB8115A681E0C9
:10576000898301C019820F900FBE898127960FB6D9
:10577000F894DEBF0FBECDBFCF91DF910895DF93C8
:10578000CF93CDB7DEB727970FB6F894DEBF0FBE25
:10579000CDBF9E838D836F838091D8069091D9066B
:1057A0009A8389838091D4069091D50602960E94AF
:1057B0007F0D8D819E812FEF8F3F920781F48F8126
:1057C000882369F08091D4069091D5069C012E5FC4
:1057D0003F4F81E397E0B9010E94CF0C43C029817C
:1057E0003A818D819E81820F931F9C838B83E091F0
:1057F000D406F091D5068B819C81938382832B8183
:105800003C8189819A812817390770F480911D079E
:1058100090911E072091D4063091D5062E5F3F4F00
:10582000B9010E94130D1EC040911B0750911C0727
:105830008091D4069091D5069C012E5F3F4FCA01FE
:10584000B9010E94130D2091E0063091E1068B8191
:105850009C818217930730F48B819C819093E106A1
:105860008093E00627960FB6F894DEBF0FBECDBF3B
:10587000CF91DF910895DF93CF9300D0CDB7DEB7FE
:1058800089836A8389816A8140E00E94230610929D
:105890003A070F900F90CF91DF910895DF93CF9348
:1058A00000D0CDB7DEB789836A8389816A8141E000
:1058B0000E94230681E080933A070F900F90CF91CA
:1058C000DF910895DF93CF9300D0CDB7DEB7898302
:1058D0006A8380913A07813041F489816A8140E08E
:1058E0000E94230610923A070CC080913A07882341
:1058F00041F489816A8141E00E94230681E080931E
:105900003A070F900F90CF91DF910895DF93CF93D7
:1059100000D000D000D0CDB7DEB78C831982809143
:10592000D200282F30E03E832D834D815E814230AE
:10593000510509F488C08D819E818430910509F458
:10594000DFC02D813E812130310509F0DEC0E091BC
:10595000DE00F091DF008181E091DE00F091DF0058
:105960009281692F40E00E942306E091DE00F091D1
:10597000DF008181E091DE00F091DF009381692FEB
:1059800040E00E942306E091DE00F091DF0080817C
:10599000882309F048C084E08A8325C08C81282FA1
:1059A00030E08A81882F90E0A90102C05595479583
:1059B0008A95E2F7CA0181708983E091DE00F09157
:1059C000DF002581E091DE00F091DF0096818A8181
:1059D000890F982F9450822F692F49810E942306A6
:1059E0008A818F5F8A838A818830C0F2E091DE00ED
:1059F000F091DF008181E091DE00F091DF00948181
:105A0000692F41E00E942306E091DE00F091DF0063
:105A10008181E091DE00F091DF009481692F40E008
:105A20000E94230609C0E091DE00F091DF00808132
:105A3000813011F085E08B8382E08093D2008091E9
:105A4000D2008B8362C0E091DE00F091DF008081A4
:105A5000882309F045C01A8223C08C81282F30E0AA
:105A60008A81882F90E0A90102C0559547958A95B3
:105A7000E2F7CA0181708983E091DE00F091DF00D6
:105A80002581E091DE00F091DF0096818A81980FF8
:105A9000822F692F49810E9423068A818F5F8A8322
:105AA0008A818430D0F2E091DE00F091DF008181C4
:105AB000E091DE00F091DF009481692F41E00E94C7
:105AC0002306E091DE00F091DF008181E091DE00AD
:105AD000F091DF009481692F40E00E94230609C005
